{
  "_format": "hh-sol-artifact-1",
  "contractName": "YourContract",
  "sourceName": "contracts/YourContract.sol",
  "abi": [
    {
      "inputs": [
        {
          "internalType": "address",
          "name": "_recipient",
          "type": "address"
        },
        {
          "internalType": "string",
          "name": "_linkToRepo",
          "type": "string"
        },
        {
          "internalType": "uint256",
          "name": "_cap",
          "type": "uint256"
        },
        {
          "internalType": "string",
          "name": "_tokenName",
          "type": "string"
        },
        {
          "internalType": "string",
          "name": "_tokenSymbol",
          "type": "string"
        },
        {
          "internalType": "string",
          "name": "_repoQuery",
          "type": "string"
        }
      ],
      "stateMutability": "nonpayable",
      "type": "constructor"
    },
    {
      "anonymous": false,
      "inputs": [
        {
          "indexed": true,
          "internalType": "address",
          "name": "owner",
          "type": "address"
        },
        {
          "indexed": true,
          "internalType": "address",
          "name": "spender",
          "type": "address"
        },
        {
          "indexed": false,
          "internalType": "uint256",
          "name": "value",
          "type": "uint256"
        }
      ],
      "name": "Approval",
      "type": "event"
    },
    {
      "anonymous": false,
      "inputs": [
        {
          "indexed": true,
          "internalType": "bytes32",
          "name": "id",
          "type": "bytes32"
        }
      ],
      "name": "ChainlinkCancelled",
      "type": "event"
    },
    {
      "anonymous": false,
      "inputs": [
        {
          "indexed": true,
          "internalType": "bytes32",
          "name": "id",
          "type": "bytes32"
        }
      ],
      "name": "ChainlinkFulfilled",
      "type": "event"
    },
    {
      "anonymous": false,
      "inputs": [
        {
          "indexed": true,
          "internalType": "bytes32",
          "name": "id",
          "type": "bytes32"
        }
      ],
      "name": "ChainlinkRequested",
      "type": "event"
    },
    {
      "anonymous": false,
      "inputs": [
        {
          "indexed": true,
          "internalType": "address",
          "name": "from",
          "type": "address"
        },
        {
          "indexed": true,
          "internalType": "address",
          "name": "to",
          "type": "address"
        },
        {
          "indexed": false,
          "internalType": "uint256",
          "name": "value",
          "type": "uint256"
        }
      ],
      "name": "Transfer",
      "type": "event"
    },
    {
      "stateMutability": "payable",
      "type": "fallback"
    },
    {
      "inputs": [
        {
          "internalType": "address",
          "name": "owner",
          "type": "address"
        },
        {
          "internalType": "address",
          "name": "spender",
          "type": "address"
        }
      ],
      "name": "allowance",
      "outputs": [
        {
          "internalType": "uint256",
          "name": "",
          "type": "uint256"
        }
      ],
      "stateMutability": "view",
      "type": "function"
    },
    {
      "inputs": [
        {
          "internalType": "address",
          "name": "spender",
          "type": "address"
        },
        {
          "internalType": "uint256",
          "name": "amount",
          "type": "uint256"
        }
      ],
      "name": "approve",
      "outputs": [
        {
          "internalType": "bool",
          "name": "",
          "type": "bool"
        }
      ],
      "stateMutability": "nonpayable",
      "type": "function"
    },
    {
      "inputs": [
        {
          "internalType": "address",
          "name": "account",
          "type": "address"
        }
      ],
      "name": "balanceOf",
      "outputs": [
        {
          "internalType": "uint256",
          "name": "",
          "type": "uint256"
        }
      ],
      "stateMutability": "view",
      "type": "function"
    },
    {
      "inputs": [
        {
          "internalType": "bytes32",
          "name": "",
          "type": "bytes32"
        }
      ],
      "name": "balances",
      "outputs": [
        {
          "internalType": "uint256",
          "name": "",
          "type": "uint256"
        }
      ],
      "stateMutability": "view",
      "type": "function"
    },
    {
      "inputs": [],
      "name": "cap",
      "outputs": [
        {
          "internalType": "uint256",
          "name": "",
          "type": "uint256"
        }
      ],
      "stateMutability": "view",
      "type": "function"
    },
    {
      "inputs": [],
      "name": "decimals",
      "outputs": [
        {
          "internalType": "uint8",
          "name": "",
          "type": "uint8"
        }
      ],
      "stateMutability": "view",
      "type": "function"
    },
    {
      "inputs": [
        {
          "internalType": "address",
          "name": "spender",
          "type": "address"
        },
        {
          "internalType": "uint256",
          "name": "subtractedValue",
          "type": "uint256"
        }
      ],
      "name": "decreaseAllowance",
      "outputs": [
        {
          "internalType": "bool",
          "name": "",
          "type": "bool"
        }
      ],
      "stateMutability": "nonpayable",
      "type": "function"
    },
    {
      "inputs": [
        {
          "internalType": "address",
          "name": "user",
          "type": "address"
        },
        {
          "internalType": "uint256",
          "name": "amount",
          "type": "uint256"
        }
      ],
      "name": "deposit",
      "outputs": [
        {
          "internalType": "bool",
          "name": "",
          "type": "bool"
        }
      ],
      "stateMutability": "nonpayable",
      "type": "function"
    },
    {
      "inputs": [
        {
          "internalType": "bytes32",
          "name": "_requestId",
          "type": "bytes32"
        }
      ],
      "name": "fulfillDelay",
      "outputs": [],
      "stateMutability": "nonpayable",
      "type": "function"
    },
    {
      "inputs": [
        {
          "internalType": "bytes32",
          "name": "_requestId",
          "type": "bytes32"
        },
        {
          "internalType": "uint256",
          "name": "_volume",
          "type": "uint256"
        }
      ],
      "name": "fulfillPrData",
      "outputs": [],
      "stateMutability": "nonpayable",
      "type": "function"
    },
    {
      "inputs": [
        {
          "internalType": "bytes32",
          "name": "_requestId",
          "type": "bytes32"
        },
        {
          "internalType": "bytes32",
          "name": "_volume",
          "type": "bytes32"
        }
      ],
      "name": "fulfillUserId",
      "outputs": [],
      "stateMutability": "nonpayable",
      "type": "function"
    },
    {
      "inputs": [
        {
          "internalType": "address",
          "name": "_address",
          "type": "address"
        }
      ],
      "name": "getBalance",
      "outputs": [
        {
          "internalType": "uint256",
          "name": "",
          "type": "uint256"
        }
      ],
      "stateMutability": "view",
      "type": "function"
    },
    {
      "inputs": [
        {
          "internalType": "address",
          "name": "spender",
          "type": "address"
        },
        {
          "internalType": "uint256",
          "name": "addedValue",
          "type": "uint256"
        }
      ],
      "name": "increaseAllowance",
      "outputs": [
        {
          "internalType": "bool",
          "name": "",
          "type": "bool"
        }
      ],
      "stateMutability": "nonpayable",
      "type": "function"
    },
    {
      "inputs": [],
      "name": "linkToRepo",
      "outputs": [
        {
          "internalType": "string",
          "name": "",
          "type": "string"
        }
      ],
      "stateMutability": "view",
      "type": "function"
    },
    {
      "inputs": [],
      "name": "name",
      "outputs": [
        {
          "internalType": "string",
          "name": "",
          "type": "string"
        }
      ],
      "stateMutability": "view",
      "type": "function"
    },
    {
      "inputs": [],
      "name": "repoOwner",
      "outputs": [
        {
          "internalType": "address",
          "name": "",
          "type": "address"
        }
      ],
      "stateMutability": "view",
      "type": "function"
    },
    {
      "inputs": [],
      "name": "repoQuery",
      "outputs": [
        {
          "internalType": "string",
          "name": "",
          "type": "string"
        }
      ],
      "stateMutability": "view",
      "type": "function"
    },
    {
      "inputs": [],
      "name": "requestPrData",
      "outputs": [
        {
          "internalType": "bytes32",
          "name": "",
          "type": "bytes32"
        }
      ],
      "stateMutability": "nonpayable",
      "type": "function"
    },
    {
      "inputs": [
        {
          "internalType": "bytes32",
          "name": "_userid",
          "type": "bytes32"
        }
      ],
      "name": "reserveContributorTokens",
      "outputs": [],
      "stateMutability": "nonpayable",
      "type": "function"
    },
    {
      "inputs": [
        {
          "internalType": "bytes32",
          "name": "_userid",
          "type": "bytes32"
        },
        {
          "internalType": "address",
          "name": "_address",
          "type": "address"
        }
      ],
      "name": "sendContributorTokens",
      "outputs": [],
      "stateMutability": "nonpayable",
      "type": "function"
    },
    {
      "inputs": [],
      "name": "setPrCheck",
      "outputs": [],
      "stateMutability": "nonpayable",
      "type": "function"
    },
    {
      "inputs": [],
      "name": "sponsorFundsRepo",
      "outputs": [],
      "stateMutability": "payable",
      "type": "function"
    },
    {
      "inputs": [
        {
          "internalType": "uint256",
          "name": "amount",
          "type": "uint256"
        }
      ],
      "name": "sponsorWithdrawsFunds",
      "outputs": [],
      "stateMutability": "nonpayable",
      "type": "function"
    },
    {
      "inputs": [],
      "name": "symbol",
      "outputs": [
        {
          "internalType": "string",
          "name": "",
          "type": "string"
        }
      ],
      "stateMutability": "view",
      "type": "function"
    },
    {
      "inputs": [],
      "name": "totalSupply",
      "outputs": [
        {
          "internalType": "uint256",
          "name": "",
          "type": "uint256"
        }
      ],
      "stateMutability": "view",
      "type": "function"
    },
    {
      "inputs": [
        {
          "internalType": "address",
          "name": "recipient",
          "type": "address"
        },
        {
          "internalType": "uint256",
          "name": "amount",
          "type": "uint256"
        }
      ],
      "name": "transfer",
      "outputs": [
        {
          "internalType": "bool",
          "name": "",
          "type": "bool"
        }
      ],
      "stateMutability": "nonpayable",
      "type": "function"
    },
    {
      "inputs": [
        {
          "internalType": "address",
          "name": "sender",
          "type": "address"
        },
        {
          "internalType": "address",
          "name": "recipient",
          "type": "address"
        },
        {
          "internalType": "uint256",
          "name": "amount",
          "type": "uint256"
        }
      ],
      "name": "transferFrom",
      "outputs": [
        {
          "internalType": "bool",
          "name": "",
          "type": "bool"
        }
      ],
      "stateMutability": "nonpayable",
      "type": "function"
    },
    {
      "inputs": [
        {
          "internalType": "uint256",
          "name": "amount",
          "type": "uint256"
        },
        {
          "internalType": "address",
          "name": "user",
          "type": "address"
        }
      ],
      "name": "withdraw",
      "outputs": [
        {
          "internalType": "bool",
          "name": "",
          "type": "bool"
        }
      ],
      "stateMutability": "nonpayable",
      "type": "function"
    }
  ],
  "bytecode": "0x60806040526001600b553480156200001657600080fd5b5060405162002b3d38038062002b3d833981810160405260c08110156200003c57600080fd5b8151602083018051604051929492938301929190846401000000008211156200006457600080fd5b9083019060208201858111156200007a57600080fd5b82516401000000008111828201881017156200009557600080fd5b82525081516020918201929091019080838360005b83811015620000c4578181015183820152602001620000aa565b50505050905090810190601f168015620000f25780820380516001836020036101000a031916815260200191505b506040818152602083015192018051929491939192846401000000008211156200011b57600080fd5b9083019060208201858111156200013157600080fd5b82516401000000008111828201881017156200014c57600080fd5b82525081516020918201929091019080838360005b838110156200017b57818101518382015260200162000161565b50505050905090810190601f168015620001a95780820380516001836020036101000a031916815260200191505b5060405260200180516040519392919084640100000000821115620001cd57600080fd5b908301906020820185811115620001e357600080fd5b8251640100000000811182820188101715620001fe57600080fd5b82525081516020918201929091019080838360005b838110156200022d57818101518382015260200162000213565b50505050905090810190601f1680156200025b5780820380516001836020036101000a031916815260200191505b50604052602001805160405193929190846401000000008211156200027f57600080fd5b9083019060208201858111156200029557600080fd5b8251640100000000811182820188101715620002b057600080fd5b82525081516020918201929091019080838360005b83811015620002df578181015183820152602001620002c5565b50505050905090810190601f1680156200030d5780820380516001836020036101000a031916815260200191505b5060405250505083838381600390805190602001906200032f929190620007fa565b50805162000345906004906020840190620007fa565b50506005805460ff191660121790555080620003a8576040805162461bcd60e51b815260206004820152601560248201527f45524332304361707065643a2063617020697320300000000000000000000000604482015290519081900360640190fd5b600655620003c08668056bc75e2d6310000062000526565b600e80546001600160a01b0319166001600160a01b0388161790558451620003f090600d906020880190620007fa565b50620003fb62000635565b601380546001600160a01b031990811673fb831a670d559e8debd4b2d42c3afceafd077f25179091557f66393461316630656330393834376166613064303262323332303463613935336014557f34646566343234623339313734346438626134356166366566343234333832316015556017805490911673aa1dc356dc4b18f30c347798fd5379f3d77abc5b1790557f393832313035643639303530346335643963653337346430343063303836353460185567016345785d8a00006019558051620004d0906016906020840190620007fa565b5050601b80546001600160a01b031990811673f8ac10e65f2073460aad5f28e1eabe807dc287cf17909155601c80549091167387b1f4cf9bd63f7bbd3ee1ad04e8f5254034934717905550620008969350505050565b6001600160a01b03821662000582576040805162461bcd60e51b815260206004820152601f60248201527f45524332303a206d696e7420746f20746865207a65726f206164647265737300604482015290519081900360640190fd5b6200059060008383620006bd565b620005ac816002546200076a60201b620011bb1790919060201c565b6002556001600160a01b03821660009081526020818152604090912054620005df918390620011bb6200076a821b17901c565b6001600160a01b0383166000818152602081815260408083209490945583518581529351929391927fddf252ad1be2c89b69c2b068fc378daa952ba7f163c4a11628f55a4df523b3ef9281900390910190a35050565b620006bb73c89bd4e1632d3a43cb03aaad5262cbe4038bc5716001600160a01b03166338cc48316040518163ffffffff1660e01b815260040160206040518083038186803b1580156200068757600080fd5b505afa1580156200069c573d6000803e3d6000fd5b505050506040513d6020811015620006b357600080fd5b5051620007cc565b565b620006d58383836200076560201b6200121c1760201c565b6001600160a01b0383166200076557620006ee620007ee565b6200071182620006fd620007f4565b6200076a60201b620011bb1790919060201c565b111562000765576040805162461bcd60e51b815260206004820152601960248201527f45524332304361707065643a2063617020657863656564656400000000000000604482015290519081900360640190fd5b505050565b600082820183811015620007c5576040805162461bcd60e51b815260206004820152601b60248201527f536166654d6174683a206164646974696f6e206f766572666c6f770000000000604482015290519081900360640190fd5b9392505050565b600980546001600160a01b0319166001600160a01b0392909216919091179055565b60065490565b60025490565b828054600181600116156101000203166002900490600052602060002090601f016020900481019282601f106200083d57805160ff19168380011785556200086d565b828001600101855582156200086d579182015b828111156200086d57825182559160200191906001019062000850565b506200087b9291506200087f565b5090565b5b808211156200087b576000815560010162000880565b61229780620008a66000396000f3fe6080604052600436106101b65760003560e01c806347e7ef24116100ec578063a457c2d71161008a578063b092864d11610064578063b092864d14610611578063dd62ed3e14610642578063e0f85ce61461067d578063f8b2cb4f146106a7576101b6565b8063a457c2d71461058a578063a7e6e4f5146105c3578063a9059cbb146105d8576101b6565b8063868a28c8116100c6578063868a28c8146105065780638909aa3f1461051b57806395d89b4114610545578063988f2df21461055a576101b6565b806347e7ef241461047057806370a08231146104a9578063811ac14b146104dc576101b6565b80631a656ef511610159578063355274ea11610133578063355274ea146103ea57806339509351146103ff57806339d2dcf614610438578063437aea5814610468576101b6565b80631a656ef51461036757806323b872dd1461037c578063313ce567146103bf576101b6565b806306fdde031161019557806306fdde0314610268578063095ea7b3146102f257806318160ddd1461032b57806318277c6914610352576101b6565b8062f714ce146101b857806301f9018414610205578063028951cf1461022f575b005b3480156101c457600080fd5b506101f1600480360360408110156101db57600080fd5b50803590602001356001600160a01b03166106da565b604080519115158252519081900360200190f35b34801561021157600080fd5b506101b66004803603602081101561022857600080fd5b50356107da565b34801561023b57600080fd5b506101b66004803603604081101561025257600080fd5b50803590602001356001600160a01b0316610820565b34801561027457600080fd5b5061027d61084a565b6040805160208082528351818301528351919283929083019185019080838360005b838110156102b757818101518382015260200161029f565b50505050905090810190601f1680156102e45780820380516001836020036101000a031916815260200191505b509250505060405180910390f35b3480156102fe57600080fd5b506101f16004803603604081101561031557600080fd5b506001600160a01b0381351690602001356108e0565b34801561033757600080fd5b506103406108fd565b60408051918252519081900360200190f35b34801561035e57600080fd5b5061027d610903565b34801561037357600080fd5b5061027d610991565b34801561038857600080fd5b506101f16004803603606081101561039f57600080fd5b506001600160a01b038135811691602081013590911690604001356109ec565b3480156103cb57600080fd5b506103d4610a73565b6040805160ff9092168252519081900360200190f35b3480156103f657600080fd5b50610340610a7c565b34801561040b57600080fd5b506101f16004803603604081101561042257600080fd5b506001600160a01b038135169060200135610a82565b34801561044457600080fd5b506101b66004803603604081101561045b57600080fd5b5080359060200135610ad0565b6101b6610b88565b34801561047c57600080fd5b506101f16004803603604081101561049357600080fd5b506001600160a01b038135169060200135610bd0565b3480156104b557600080fd5b50610340600480360360208110156104cc57600080fd5b50356001600160a01b0316610c49565b3480156104e857600080fd5b506101b6600480360360208110156104ff57600080fd5b5035610c68565b34801561051257600080fd5b506101b6610c7f565b34801561052757600080fd5b506103406004803603602081101561053e57600080fd5b5035610ce5565b34801561055157600080fd5b5061027d610cf7565b34801561056657600080fd5b506101b66004803603604081101561057d57600080fd5b5080359060200135610d58565b34801561059657600080fd5b506101f1600480360360408110156105ad57600080fd5b506001600160a01b038135169060200135610ea0565b3480156105cf57600080fd5b50610340610f08565b3480156105e457600080fd5b506101f1600480360360408110156105fb57600080fd5b506001600160a01b0381351690602001356110b7565b34801561061d57600080fd5b506106266110cb565b604080516001600160a01b039092168252519081900360200190f35b34801561064e57600080fd5b506103406004803603604081101561066557600080fd5b506001600160a01b03813581169160200135166110da565b34801561068957600080fd5b506101b6600480360360208110156106a057600080fd5b5035611105565b3480156106b357600080fd5b50610340600480360360208110156106ca57600080fd5b50356001600160a01b03166111b0565b601c54601b546040805163095ea7b360e01b81526001600160a01b039283166004820152602481018690529051600093929092169163095ea7b39160448082019260209290919082900301818787803b15801561073657600080fd5b505af115801561074a573d6000803e3d6000fd5b505050506040513d602081101561076057600080fd5b5050601b5460408051631b08c5a960e11b8152600481018690526001600160a01b038581166024830152915191909216916336118b5291604480830192600092919082900301818387803b1580156107b757600080fd5b505af11580156107cb573d6000803e3d6000fd5b50505050600190505b92915050565b6107e43382611221565b6107ee81306106da565b50604051339082156108fc029083906000818181858888f1935050505015801561081c573d6000803e3d6000fd5b5050565b60008281526010602052604090205461083857600080fd5b61081c81670de0b6b3a764000061131d565b60038054604080516020601f60026000196101006001881615020190951694909404938401819004810282018101909252828152606093909290918301828280156108d65780601f106108ab576101008083540402835291602001916108d6565b820191906000526020600020905b8154815290600101906020018083116108b957829003601f168201915b5050505050905090565b60006108f46108ed61140d565b8484611411565b50600192915050565b60025490565b600d805460408051602060026001851615610100026000190190941693909304601f810184900484028201840190925281815292918301828280156109895780601f1061095e57610100808354040283529160200191610989565b820191906000526020600020905b81548152906001019060200180831161096c57829003601f168201915b505050505081565b6016805460408051602060026001851615610100026000190190941693909304601f810184900484028201840190925281815292918301828280156109895780601f1061095e57610100808354040283529160200191610989565b60006109f98484846114fd565b610a6984610a0561140d565b610a6485604051806060016040528060288152602001612183602891396001600160a01b038a16600090815260016020526040812090610a4361140d565b6001600160a01b031681526020810191909152604001600020549190611658565b611411565b5060019392505050565b60055460ff1690565b60065490565b60006108f4610a8f61140d565b84610a648560016000610aa061140d565b6001600160a01b03908116825260208083019390935260409182016000908120918c1681529252902054906111bb565b6000828152600c602052604090205482906001600160a01b03163314610b275760405162461bcd60e51b81526004018080602001828103825260288152602001806122156028913960400191505060405180910390fd5b6000818152600c602052604080822080546001600160a01b03191690555182917f7cc135e0cebb02c3480ae5d74d377283180a2601f8f644edf7987b009316c63a91a250601181905560009081526010602052604090208054600101905550565b66038d7ea4c68000341015610b9c57600080fd5b336000908152600f602052604090203490819055610bbb903090610bd0565b50610bce33678ac7230489e8000061131d565b565b601b54604080516358c22be760e01b81526001600160a01b0385811660048301526000602483018190529251929316916358c22be79185916044808301928792919082900301818588803b158015610c2757600080fd5b505af1158015610c3b573d6000803e3d6000fd5b506001979650505050505050565b6001600160a01b0381166000908152602081905260409020545b919050565b600090815260106020526040902080546001019055565b610c87612083565b601854610c9c903063707c2e7360e11b6116ef565b6040805180820190915260058152641d5b9d1a5b60da1b6020820152909150610cca908290603c4201611714565b60175460195461081c916001600160a01b0316908390611732565b601a6020526000908152604090205481565b60048054604080516020601f60026000196101006001881615020190951694909404938401819004810282018101909252828152606093909290918301828280156108d65780601f106108ab576101008083540402835291602001916108d6565b6000828152600c602052604090205482906001600160a01b03163314610daf5760405162461bcd60e51b81526004018080602001828103825260288152602001806122156028913960400191505060405180910390fd5b6000818152600c602052604080822080546001600160a01b03191690555182917f7cc135e0cebb02c3480ae5d74d377283180a2601f8f644edf7987b009316c63a91a2601282905560005b601254811015610e9a576060610e0f82611900565b6040516020018080643230ba309760d91b81525060050182805190602001908083835b60208310610e515780518252601f199092019160209182019101610e32565b6001836020036101000a0380198251168184511680821785525050505050509050019150506040516020818303038152906040529050610e90816119d8565b5050600101610dfa565b50505050565b60006108f4610ead61140d565b84610a648560405180606001604052806025815260200161223d6025913960016000610ed761140d565b6001600160a01b03908116825260208083019390935260409182016000908120918d16815292529020549190611658565b6000610f12612083565b601554610f279030634c4796f960e11b6116ef565b9050610f886040518060400160405280600381526020016219d95d60ea1b81525060405180604001604052806017815260200176687474703a2f2f34302e37362e32332e33312f6170692f60481b81525083611b1a9092919063ffffffff16565b604080518082018252600b81526a7175657279506172616d7360a81b602080830191909152601680548451601f6002600019610100600186161502019093169290920491820184900484028101840190955280855261104894928301828280156110335780601f1061100857610100808354040283529160200191611033565b820191906000526020600020905b81548152906001019060200180831161101657829003601f168201915b505050505083611b1a9092919063ffffffff16565b611096604051806040016040528060048152602001630e0c2e8d60e31b8152506040518060400160405280600581526020016418dbdd5b9d60da1b81525083611b1a9092919063ffffffff16565b6013546019546110b1916001600160a01b0316908390611732565b91505090565b60006108f46110c461140d565b84846114fd565b600e546001600160a01b031681565b6001600160a01b03918216600090815260016020908152604080832093909416825291909152205490565b6000818152600c602052604090205481906001600160a01b0316331461115c5760405162461bcd60e51b81526004018080602001828103825260288152602001806122156028913960400191505060405180910390fd5b6000818152600c602052604080822080546001600160a01b03191690555182917f7cc135e0cebb02c3480ae5d74d377283180a2601f8f644edf7987b009316c63a91a26111a7610f08565b5061081c610c7f565b60006107d482610c49565b600082820183811015611215576040805162461bcd60e51b815260206004820152601b60248201527f536166654d6174683a206164646974696f6e206f766572666c6f770000000000604482015290519081900360640190fd5b9392505050565b505050565b6001600160a01b0382166112665760405162461bcd60e51b81526004018080602001828103825260218152602001806121ab6021913960400191505060405180910390fd5b61127282600083611b38565b6112af816040518060600160405280602281526020016120f6602291396001600160a01b0385166000908152602081905260409020549190611658565b6001600160a01b0383166000908152602081905260409020556002546112d59082611bbe565b6002556040805182815290516000916001600160a01b038516917fddf252ad1be2c89b69c2b068fc378daa952ba7f163c4a11628f55a4df523b3ef9181900360200190a35050565b6001600160a01b038216611378576040805162461bcd60e51b815260206004820152601f60248201527f45524332303a206d696e7420746f20746865207a65726f206164647265737300604482015290519081900360640190fd5b61138460008383611b38565b60025461139190826111bb565b6002556001600160a01b0382166000908152602081905260409020546113b790826111bb565b6001600160a01b0383166000818152602081815260408083209490945583518581529351929391927fddf252ad1be2c89b69c2b068fc378daa952ba7f163c4a11628f55a4df523b3ef9281900390910190a35050565b3390565b6001600160a01b0383166114565760405162461bcd60e51b81526004018080602001828103825260248152602001806121f16024913960400191505060405180910390fd5b6001600160a01b03821661149b5760405162461bcd60e51b81526004018080602001828103825260228152602001806121186022913960400191505060405180910390fd5b6001600160a01b03808416600081815260016020908152604080832094871680845294825291829020859055815185815291517f8c5be1e5ebec7d5bd14f71427d1e84f3dd0314c0f7b2291e5b200ac8c7c3b9259281900390910190a3505050565b6001600160a01b0383166115425760405162461bcd60e51b81526004018080602001828103825260258152602001806121cc6025913960400191505060405180910390fd5b6001600160a01b0382166115875760405162461bcd60e51b81526004018080602001828103825260238152602001806120d36023913960400191505060405180910390fd5b611592838383611b38565b6115cf8160405180606001604052806026815260200161215d602691396001600160a01b0386166000908152602081905260409020549190611658565b6001600160a01b0380851660009081526020819052604080822093909355908416815220546115fe90826111bb565b6001600160a01b038084166000818152602081815260409182902094909455805185815290519193928716927fddf252ad1be2c89b69c2b068fc378daa952ba7f163c4a11628f55a4df523b3ef92918290030190a3505050565b600081848411156116e75760405162461bcd60e51b81526004018080602001828103825283818151815260200191508051906020019080838360005b838110156116ac578181015183820152602001611694565b50505050905090810190601f1680156116d95780820380516001836020036101000a031916815260200191505b509250505060405180910390fd5b505050900390565b6116f7612083565b6116ff612083565b61170b81868686611c1b565b95945050505050565b60808301516117239083611c58565b608083015161121c9082611c6f565b600b546040805130606090811b60208084019190915260348084018690528451808503909101815260549093018452825192810192909220908601939093526000838152600c90915281812080546001600160a01b0319166001600160a01b038816179055905182917fb5e6e01e79f91267dc17b4e6314d5d4d03593d2ceee0fbb452b750bd70ea5af991a26009546001600160a01b0316634000aea085846117da87611c7b565b6040518463ffffffff1660e01b815260040180846001600160a01b0316815260200183815260200180602001828103825283818151815260200191508051906020019080838360005b8381101561183b578181015183820152602001611823565b50505050905090810190601f1680156118685780820380516001836020036101000a031916815260200191505b50945050505050602060405180830381600087803b15801561188957600080fd5b505af115801561189d573d6000803e3d6000fd5b505050506040513d60208110156118b357600080fd5b50516118f05760405162461bcd60e51b815260040180806020018281038252602381526020018061213a6023913960400191505060405180910390fd5b600b805460010190559392505050565b60608161192557506040805180820190915260018152600360fc1b6020820152610c63565b8160005b811561193d57600101600a82049150611929565b60608167ffffffffffffffff8111801561195657600080fd5b506040519080825280601f01601f191660200182016040528015611981576020820181803683370190505b50905060001982015b85156119cf57600a860660300160f81b828280600190039350815181106119ad57fe5b60200101906001600160f81b031916908160001a905350600a8604955061198a565b50949350505050565b60006119e2612083565b6014546119f79030631ce96e7b60e11b6116ef565b9050611a586040518060400160405280600381526020016219d95d60ea1b81525060405180604001604052806017815260200176687474703a2f2f34302e37362e32332e33312f6170692f60481b81525083611b1a9092919063ffffffff16565b604080518082018252600b81526a7175657279506172616d7360a81b602080830191909152601680548451601f60026000196101006001861615020190931692909204918201849004840281018401909552808552611ad894928301828280156110335780601f1061100857610100808354040283529160200191611033565b6040805180820190915260048152630e0c2e8d60e31b6020820152611aff90829085611b1a565b601354601954611215916001600160a01b0316908390611732565b6080830151611b299083611c58565b608083015161121c9082611c58565b611b4383838361121c565b6001600160a01b03831661121c57611b59610a7c565b611b6b82611b656108fd565b906111bb565b111561121c576040805162461bcd60e51b815260206004820152601960248201527f45524332304361707065643a2063617020657863656564656400000000000000604482015290519081900360640190fd5b600082821115611c15576040805162461bcd60e51b815260206004820152601e60248201527f536166654d6174683a207375627472616374696f6e206f766572666c6f770000604482015290519081900360640190fd5b50900390565b611c23612083565b611c338560800151610100611d9f565b50509183526001600160a01b031660208301526001600160e01b031916604082015290565b611c658260038351611dd9565b61121c8282611ead565b61081c82600083611dd9565b6060634042994660e01b6000808460000151856020015186604001518760600151600189608001516000015160405160240180896001600160a01b03168152602001888152602001878152602001866001600160a01b03168152602001856001600160e01b031916815260200184815260200183815260200180602001828103825283818151815260200191508051906020019080838360005b83811015611d2d578181015183820152602001611d15565b50505050905090810190601f168015611d5a5780820380516001836020036101000a031916815260200191505b5060408051601f198184030181529190526020810180516001600160e01b03166001600160e01b0319909d169c909c17909b5250989950505050505050505050919050565b611da76120b8565b6020820615611dbc5760208206602003820191505b506020828101829052604080518085526000815290920101905290565b60178111611dfa57611df48360e0600585901b168317611ec7565b5061121c565b60ff8111611e2457611e17836018611fe0600586901b1617611ec7565b50611df483826001611edf565b61ffff8111611e4f57611e42836019611fe0600586901b1617611ec7565b50611df483826002611edf565b63ffffffff8111611e7c57611e6f83601a611fe0600586901b1617611ec7565b50611df483826004611edf565b67ffffffffffffffff811161121c57611ea083601b611fe0600586901b1617611ec7565b50610e9a83826008611edf565b611eb56120b8565b61121583846000015151848551611f00565b611ecf6120b8565b6112158384600001515184611fac565b611ee76120b8565b611ef8848560000151518585611ff7565b949350505050565b611f086120b8565b8251821115611f1657600080fd5b84602001518285011115611f4057611f4085611f388760200151878601612055565b60020261206c565b600080865180518760208301019350808887011115611f5f5787860182525b505050602084015b60208410611f865780518252601f199093019260209182019101611f67565b51815160001960208690036101000a019081169019919091161790525083949350505050565b611fb46120b8565b83602001518310611fd057611fd084856020015160020261206c565b835180516020858301018481535080851415611fed576001810182525b5093949350505050565b611fff6120b8565b8460200151848301111561201c5761201c8585840160020261206c565b60006001836101000a03905085518386820101858319825116178152508051848701111561204a5783860181525b509495945050505050565b6000818311156120665750816107d4565b50919050565b81516120788383611d9f565b50610e9a8382611ead565b6040805160a0810182526000808252602082018190529181018290526060810191909152608081016120b36120b8565b905290565b60405180604001604052806060815260200160008152509056fe45524332303a207472616e7366657220746f20746865207a65726f206164647265737345524332303a206275726e20616d6f756e7420657863656564732062616c616e636545524332303a20617070726f766520746f20746865207a65726f2061646472657373756e61626c6520746f207472616e73666572416e6443616c6c20746f206f7261636c6545524332303a207472616e7366657220616d6f756e7420657863656564732062616c616e636545524332303a207472616e7366657220616d6f756e74206578636565647320616c6c6f77616e636545524332303a206275726e2066726f6d20746865207a65726f206164647265737345524332303a207472616e736665722066726f6d20746865207a65726f206164647265737345524332303a20617070726f76652066726f6d20746865207a65726f2061646472657373536f75726365206d75737420626520746865206f7261636c65206f6620746865207265717565737445524332303a2064656372656173656420616c6c6f77616e63652062656c6f77207a65726fa26469706673582212205613629d23040ab0dba81a6777add05ddf159900c0b6f8fcad98aefe9463981764736f6c634300060c0033",
  "linkReferences": {},
  "deployedLinkReferences": {}
}