{
  "_format": "hh-sol-artifact-1",
  "contractName": "YourContract",
  "sourceName": "contracts/YourContract.sol",
  "abi": [
    {
      "inputs": [
        {
          "internalType": "address",
          "name": "_recipient",
          "type": "address"
        },
        {
          "internalType": "string",
          "name": "_linkToRepo",
          "type": "string"
        },
        {
          "internalType": "uint256",
          "name": "_cap",
          "type": "uint256"
        },
        {
          "internalType": "string",
          "name": "_tokenName",
          "type": "string"
        },
        {
          "internalType": "string",
          "name": "_tokenSymbol",
          "type": "string"
        },
        {
          "internalType": "string",
          "name": "_repoQuery",
          "type": "string"
        }
      ],
      "stateMutability": "nonpayable",
      "type": "constructor"
    },
    {
      "anonymous": false,
      "inputs": [
        {
          "indexed": true,
          "internalType": "address",
          "name": "owner",
          "type": "address"
        },
        {
          "indexed": true,
          "internalType": "address",
          "name": "spender",
          "type": "address"
        },
        {
          "indexed": false,
          "internalType": "uint256",
          "name": "value",
          "type": "uint256"
        }
      ],
      "name": "Approval",
      "type": "event"
    },
    {
      "anonymous": false,
      "inputs": [
        {
          "indexed": true,
          "internalType": "bytes32",
          "name": "id",
          "type": "bytes32"
        }
      ],
      "name": "ChainlinkCancelled",
      "type": "event"
    },
    {
      "anonymous": false,
      "inputs": [
        {
          "indexed": true,
          "internalType": "bytes32",
          "name": "id",
          "type": "bytes32"
        }
      ],
      "name": "ChainlinkFulfilled",
      "type": "event"
    },
    {
      "anonymous": false,
      "inputs": [
        {
          "indexed": true,
          "internalType": "bytes32",
          "name": "id",
          "type": "bytes32"
        }
      ],
      "name": "ChainlinkRequested",
      "type": "event"
    },
    {
      "anonymous": false,
      "inputs": [
        {
          "indexed": true,
          "internalType": "address",
          "name": "from",
          "type": "address"
        },
        {
          "indexed": true,
          "internalType": "address",
          "name": "to",
          "type": "address"
        },
        {
          "indexed": false,
          "internalType": "uint256",
          "name": "value",
          "type": "uint256"
        }
      ],
      "name": "Transfer",
      "type": "event"
    },
    {
      "stateMutability": "payable",
      "type": "fallback"
    },
    {
      "inputs": [
        {
          "internalType": "address",
          "name": "owner",
          "type": "address"
        },
        {
          "internalType": "address",
          "name": "spender",
          "type": "address"
        }
      ],
      "name": "allowance",
      "outputs": [
        {
          "internalType": "uint256",
          "name": "",
          "type": "uint256"
        }
      ],
      "stateMutability": "view",
      "type": "function"
    },
    {
      "inputs": [
        {
          "internalType": "address",
          "name": "spender",
          "type": "address"
        },
        {
          "internalType": "uint256",
          "name": "amount",
          "type": "uint256"
        }
      ],
      "name": "approve",
      "outputs": [
        {
          "internalType": "bool",
          "name": "",
          "type": "bool"
        }
      ],
      "stateMutability": "nonpayable",
      "type": "function"
    },
    {
      "inputs": [
        {
          "internalType": "address",
          "name": "account",
          "type": "address"
        }
      ],
      "name": "balanceOf",
      "outputs": [
        {
          "internalType": "uint256",
          "name": "",
          "type": "uint256"
        }
      ],
      "stateMutability": "view",
      "type": "function"
    },
    {
      "inputs": [
        {
          "internalType": "bytes32",
          "name": "",
          "type": "bytes32"
        }
      ],
      "name": "balances",
      "outputs": [
        {
          "internalType": "uint256",
          "name": "",
          "type": "uint256"
        }
      ],
      "stateMutability": "view",
      "type": "function"
    },
    {
      "inputs": [],
      "name": "cap",
      "outputs": [
        {
          "internalType": "uint256",
          "name": "",
          "type": "uint256"
        }
      ],
      "stateMutability": "view",
      "type": "function"
    },
    {
      "inputs": [],
      "name": "decimals",
      "outputs": [
        {
          "internalType": "uint8",
          "name": "",
          "type": "uint8"
        }
      ],
      "stateMutability": "view",
      "type": "function"
    },
    {
      "inputs": [
        {
          "internalType": "address",
          "name": "spender",
          "type": "address"
        },
        {
          "internalType": "uint256",
          "name": "subtractedValue",
          "type": "uint256"
        }
      ],
      "name": "decreaseAllowance",
      "outputs": [
        {
          "internalType": "bool",
          "name": "",
          "type": "bool"
        }
      ],
      "stateMutability": "nonpayable",
      "type": "function"
    },
    {
      "inputs": [
        {
          "internalType": "address",
          "name": "user",
          "type": "address"
        },
        {
          "internalType": "uint256",
          "name": "amount",
          "type": "uint256"
        }
      ],
      "name": "deposit",
      "outputs": [
        {
          "internalType": "bool",
          "name": "",
          "type": "bool"
        }
      ],
      "stateMutability": "nonpayable",
      "type": "function"
    },
    {
      "inputs": [
        {
          "internalType": "bytes32",
          "name": "_requestId",
          "type": "bytes32"
        }
      ],
      "name": "fulfillDelay",
      "outputs": [],
      "stateMutability": "nonpayable",
      "type": "function"
    },
    {
      "inputs": [
        {
          "internalType": "bytes32",
          "name": "_requestId",
          "type": "bytes32"
        },
        {
          "internalType": "uint256",
          "name": "_volume",
          "type": "uint256"
        }
      ],
      "name": "fulfillPrData",
      "outputs": [],
      "stateMutability": "nonpayable",
      "type": "function"
    },
    {
      "inputs": [
        {
          "internalType": "bytes32",
          "name": "_requestId",
          "type": "bytes32"
        },
        {
          "internalType": "bytes32",
          "name": "_volume",
          "type": "bytes32"
        }
      ],
      "name": "fulfillUserId",
      "outputs": [],
      "stateMutability": "nonpayable",
      "type": "function"
    },
    {
      "inputs": [
        {
          "internalType": "address",
          "name": "_address",
          "type": "address"
        }
      ],
      "name": "getBalance",
      "outputs": [
        {
          "internalType": "uint256",
          "name": "",
          "type": "uint256"
        }
      ],
      "stateMutability": "view",
      "type": "function"
    },
    {
      "inputs": [
        {
          "internalType": "address",
          "name": "spender",
          "type": "address"
        },
        {
          "internalType": "uint256",
          "name": "addedValue",
          "type": "uint256"
        }
      ],
      "name": "increaseAllowance",
      "outputs": [
        {
          "internalType": "bool",
          "name": "",
          "type": "bool"
        }
      ],
      "stateMutability": "nonpayable",
      "type": "function"
    },
    {
      "inputs": [],
      "name": "linkToRepo",
      "outputs": [
        {
          "internalType": "string",
          "name": "",
          "type": "string"
        }
      ],
      "stateMutability": "view",
      "type": "function"
    },
    {
      "inputs": [],
      "name": "name",
      "outputs": [
        {
          "internalType": "string",
          "name": "",
          "type": "string"
        }
      ],
      "stateMutability": "view",
      "type": "function"
    },
    {
      "inputs": [],
      "name": "repoOwner",
      "outputs": [
        {
          "internalType": "address",
          "name": "",
          "type": "address"
        }
      ],
      "stateMutability": "view",
      "type": "function"
    },
    {
      "inputs": [],
      "name": "repoQuery",
      "outputs": [
        {
          "internalType": "string",
          "name": "",
          "type": "string"
        }
      ],
      "stateMutability": "view",
      "type": "function"
    },
    {
      "inputs": [],
      "name": "requestPrData",
      "outputs": [
        {
          "internalType": "bytes32",
          "name": "",
          "type": "bytes32"
        }
      ],
      "stateMutability": "nonpayable",
      "type": "function"
    },
    {
      "inputs": [
        {
          "internalType": "bytes32",
          "name": "_userid",
          "type": "bytes32"
        }
      ],
      "name": "reserveContributorTokens",
      "outputs": [],
      "stateMutability": "nonpayable",
      "type": "function"
    },
    {
      "inputs": [
        {
          "internalType": "bytes32",
          "name": "_userid",
          "type": "bytes32"
        },
        {
          "internalType": "address",
          "name": "_address",
          "type": "address"
        }
      ],
      "name": "sendContributorTokens",
      "outputs": [],
      "stateMutability": "nonpayable",
      "type": "function"
    },
    {
      "inputs": [],
      "name": "setPrCheck",
      "outputs": [],
      "stateMutability": "nonpayable",
      "type": "function"
    },
    {
      "inputs": [],
      "name": "sponsorFundsRepo",
      "outputs": [],
      "stateMutability": "payable",
      "type": "function"
    },
    {
      "inputs": [
        {
          "internalType": "uint256",
          "name": "amount",
          "type": "uint256"
        }
      ],
      "name": "sponsorWithdrawsFunds",
      "outputs": [],
      "stateMutability": "nonpayable",
      "type": "function"
    },
    {
      "inputs": [],
      "name": "symbol",
      "outputs": [
        {
          "internalType": "string",
          "name": "",
          "type": "string"
        }
      ],
      "stateMutability": "view",
      "type": "function"
    },
    {
      "inputs": [],
      "name": "totalSupply",
      "outputs": [
        {
          "internalType": "uint256",
          "name": "",
          "type": "uint256"
        }
      ],
      "stateMutability": "view",
      "type": "function"
    },
    {
      "inputs": [
        {
          "internalType": "address",
          "name": "recipient",
          "type": "address"
        },
        {
          "internalType": "uint256",
          "name": "amount",
          "type": "uint256"
        }
      ],
      "name": "transfer",
      "outputs": [
        {
          "internalType": "bool",
          "name": "",
          "type": "bool"
        }
      ],
      "stateMutability": "nonpayable",
      "type": "function"
    },
    {
      "inputs": [
        {
          "internalType": "address",
          "name": "sender",
          "type": "address"
        },
        {
          "internalType": "address",
          "name": "recipient",
          "type": "address"
        },
        {
          "internalType": "uint256",
          "name": "amount",
          "type": "uint256"
        }
      ],
      "name": "transferFrom",
      "outputs": [
        {
          "internalType": "bool",
          "name": "",
          "type": "bool"
        }
      ],
      "stateMutability": "nonpayable",
      "type": "function"
    },
    {
      "inputs": [
        {
          "internalType": "uint256",
          "name": "amount",
          "type": "uint256"
        },
        {
          "internalType": "address",
          "name": "user",
          "type": "address"
        }
      ],
      "name": "withdraw",
      "outputs": [
        {
          "internalType": "bool",
          "name": "",
          "type": "bool"
        }
      ],
      "stateMutability": "nonpayable",
      "type": "function"
    }
  ],
  "bytecode": "0x60806040526001600b553480156200001657600080fd5b5060405162002b7838038062002b78833981810160405260c08110156200003c57600080fd5b8151602083018051604051929492938301929190846401000000008211156200006457600080fd5b9083019060208201858111156200007a57600080fd5b82516401000000008111828201881017156200009557600080fd5b82525081516020918201929091019080838360005b83811015620000c4578181015183820152602001620000aa565b50505050905090810190601f168015620000f25780820380516001836020036101000a031916815260200191505b506040818152602083015192018051929491939192846401000000008211156200011b57600080fd5b9083019060208201858111156200013157600080fd5b82516401000000008111828201881017156200014c57600080fd5b82525081516020918201929091019080838360005b838110156200017b57818101518382015260200162000161565b50505050905090810190601f168015620001a95780820380516001836020036101000a031916815260200191505b5060405260200180516040519392919084640100000000821115620001cd57600080fd5b908301906020820185811115620001e357600080fd5b8251640100000000811182820188101715620001fe57600080fd5b82525081516020918201929091019080838360005b838110156200022d57818101518382015260200162000213565b50505050905090810190601f1680156200025b5780820380516001836020036101000a031916815260200191505b50604052602001805160405193929190846401000000008211156200027f57600080fd5b9083019060208201858111156200029557600080fd5b8251640100000000811182820188101715620002b057600080fd5b82525081516020918201929091019080838360005b83811015620002df578181015183820152602001620002c5565b50505050905090810190601f1680156200030d5780820380516001836020036101000a031916815260200191505b5060405250505083838381600390805190602001906200032f929190620007fa565b50805162000345906004906020840190620007fa565b50506005805460ff191660121790555080620003a8576040805162461bcd60e51b815260206004820152601560248201527f45524332304361707065643a2063617020697320300000000000000000000000604482015290519081900360640190fd5b600655620003c08668056bc75e2d6310000062000526565b600e80546001600160a01b0319166001600160a01b0388161790558451620003f090600d906020880190620007fa565b50620003fb62000635565b601380546001600160a01b031990811673fb831a670d559e8debd4b2d42c3afceafd077f25179091557f66393461316630656330393834376166613064303262323332303463613935336014557f34646566343234623339313734346438626134356166366566343234333832316015556017805490911673f405b99aca8578b9eb989ee2b69d518aadb90c1f1790557f613133616430353138633964346666646264626435626637343561656665303260185567016345785d8a00006019558051620004d0906016906020840190620007fa565b5050601b80546001600160a01b031990811673f8ac10e65f2073460aad5f28e1eabe807dc287cf17909155601c80549091167387b1f4cf9bd63f7bbd3ee1ad04e8f5254034934717905550620008969350505050565b6001600160a01b03821662000582576040805162461bcd60e51b815260206004820152601f60248201527f45524332303a206d696e7420746f20746865207a65726f206164647265737300604482015290519081900360640190fd5b6200059060008383620006bd565b620005ac816002546200076a60201b620011f91790919060201c565b6002556001600160a01b03821660009081526020818152604090912054620005df918390620011f96200076a821b17901c565b6001600160a01b0383166000818152602081815260408083209490945583518581529351929391927fddf252ad1be2c89b69c2b068fc378daa952ba7f163c4a11628f55a4df523b3ef9281900390910190a35050565b620006bb73c89bd4e1632d3a43cb03aaad5262cbe4038bc5716001600160a01b03166338cc48316040518163ffffffff1660e01b815260040160206040518083038186803b1580156200068757600080fd5b505afa1580156200069c573d6000803e3d6000fd5b505050506040513d6020811015620006b357600080fd5b5051620007cc565b565b620006d58383836200076560201b6200125a1760201c565b6001600160a01b0383166200076557620006ee620007ee565b6200071182620006fd620007f4565b6200076a60201b620011f91790919060201c565b111562000765576040805162461bcd60e51b815260206004820152601960248201527f45524332304361707065643a2063617020657863656564656400000000000000604482015290519081900360640190fd5b505050565b600082820183811015620007c5576040805162461bcd60e51b815260206004820152601b60248201527f536166654d6174683a206164646974696f6e206f766572666c6f770000000000604482015290519081900360640190fd5b9392505050565b600980546001600160a01b0319166001600160a01b0392909216919091179055565b60065490565b60025490565b828054600181600116156101000203166002900490600052602060002090601f016020900481019282601f106200083d57805160ff19168380011785556200086d565b828001600101855582156200086d579182015b828111156200086d57825182559160200191906001019062000850565b506200087b9291506200087f565b5090565b5b808211156200087b576000815560010162000880565b6122d280620008a66000396000f3fe6080604052600436106101b65760003560e01c806347e7ef24116100ec578063a457c2d71161008a578063b092864d11610064578063b092864d14610611578063dd62ed3e14610642578063e0f85ce61461067d578063f8b2cb4f146106a7576101b6565b8063a457c2d71461058a578063a7e6e4f5146105c3578063a9059cbb146105d8576101b6565b8063868a28c8116100c6578063868a28c8146105065780638909aa3f1461051b57806395d89b4114610545578063988f2df21461055a576101b6565b806347e7ef241461047057806370a08231146104a9578063811ac14b146104dc576101b6565b80631a656ef511610159578063355274ea11610133578063355274ea146103ea57806339509351146103ff57806339d2dcf614610438578063437aea5814610468576101b6565b80631a656ef51461036757806323b872dd1461037c578063313ce567146103bf576101b6565b806306fdde031161019557806306fdde0314610268578063095ea7b3146102f257806318160ddd1461032b57806318277c6914610352576101b6565b8062f714ce146101b857806301f9018414610205578063028951cf1461022f575b005b3480156101c457600080fd5b506101f1600480360360408110156101db57600080fd5b50803590602001356001600160a01b03166106da565b604080519115158252519081900360200190f35b34801561021157600080fd5b506101b66004803603602081101561022857600080fd5b50356107da565b34801561023b57600080fd5b506101b66004803603604081101561025257600080fd5b50803590602001356001600160a01b031661083d565b34801561027457600080fd5b5061027d61088b565b6040805160208082528351818301528351919283929083019185019080838360005b838110156102b757818101518382015260200161029f565b50505050905090810190601f1680156102e45780820380516001836020036101000a031916815260200191505b509250505060405180910390f35b3480156102fe57600080fd5b506101f16004803603604081101561031557600080fd5b506001600160a01b038135169060200135610921565b34801561033757600080fd5b5061034061093e565b60408051918252519081900360200190f35b34801561035e57600080fd5b5061027d610944565b34801561037357600080fd5b5061027d6109d2565b34801561038857600080fd5b506101f16004803603606081101561039f57600080fd5b506001600160a01b03813581169160208101359091169060400135610a2d565b3480156103cb57600080fd5b506103d4610ab4565b6040805160ff9092168252519081900360200190f35b3480156103f657600080fd5b50610340610abd565b34801561040b57600080fd5b506101f16004803603604081101561042257600080fd5b506001600160a01b038135169060200135610ac3565b34801561044457600080fd5b506101b66004803603604081101561045b57600080fd5b5080359060200135610b11565b6101b6610bc9565b34801561047c57600080fd5b506101f16004803603604081101561049357600080fd5b506001600160a01b038135169060200135610c11565b3480156104b557600080fd5b50610340600480360360208110156104cc57600080fd5b50356001600160a01b0316610c8a565b3480156104e857600080fd5b506101b6600480360360208110156104ff57600080fd5b5035610ca9565b34801561051257600080fd5b506101b6610cc0565b34801561052757600080fd5b506103406004803603602081101561053e57600080fd5b5035610d26565b34801561055157600080fd5b5061027d610d38565b34801561056657600080fd5b506101b66004803603604081101561057d57600080fd5b5080359060200135610d99565b34801561059657600080fd5b506101f1600480360360408110156105ad57600080fd5b506001600160a01b038135169060200135610ee1565b3480156105cf57600080fd5b50610340610f49565b3480156105e457600080fd5b506101f1600480360360408110156105fb57600080fd5b506001600160a01b0381351690602001356110f5565b34801561061d57600080fd5b50610626611109565b604080516001600160a01b039092168252519081900360200190f35b34801561064e57600080fd5b506103406004803603604081101561066557600080fd5b506001600160a01b0381358116916020013516611118565b34801561068957600080fd5b506101b6600480360360208110156106a057600080fd5b5035611143565b3480156106b357600080fd5b50610340600480360360208110156106ca57600080fd5b50356001600160a01b03166111ee565b601c54601b546040805163095ea7b360e01b81526001600160a01b039283166004820152602481018690529051600093929092169163095ea7b39160448082019260209290919082900301818787803b15801561073657600080fd5b505af115801561074a573d6000803e3d6000fd5b505050506040513d602081101561076057600080fd5b5050601b5460408051631b08c5a960e11b8152600481018690526001600160a01b038581166024830152915191909216916336118b5291604480830192600092919082900301818387803b1580156107b757600080fd5b505af11580156107cb573d6000803e3d6000fd5b50505050600190505b92915050565b6107ee3382670de0b6b3a76400000261125f565b6108028167016345785d8a000002306106da565b50604051339067016345785d8a0000830280156108fc02916000818181858888f19350505050158015610839573d6000803e3d6000fd5b5050565b60008281526010602052604090205461085557600080fd5b600082815260106020526040902054610879908290670de0b6b3a76400000261135b565b50600090815260106020526040812055565b60038054604080516020601f60026000196101006001881615020190951694909404938401819004810282018101909252828152606093909290918301828280156109175780601f106108ec57610100808354040283529160200191610917565b820191906000526020600020905b8154815290600101906020018083116108fa57829003601f168201915b5050505050905090565b600061093561092e61144b565b848461144f565b50600192915050565b60025490565b600d805460408051602060026001851615610100026000190190941693909304601f810184900484028201840190925281815292918301828280156109ca5780601f1061099f576101008083540402835291602001916109ca565b820191906000526020600020905b8154815290600101906020018083116109ad57829003601f168201915b505050505081565b6016805460408051602060026001851615610100026000190190941693909304601f810184900484028201840190925281815292918301828280156109ca5780601f1061099f576101008083540402835291602001916109ca565b6000610a3a84848461153b565b610aaa84610a4661144b565b610aa5856040518060600160405280602881526020016121be602891396001600160a01b038a16600090815260016020526040812090610a8461144b565b6001600160a01b031681526020810191909152604001600020549190611696565b61144f565b5060019392505050565b60055460ff1690565b60065490565b6000610935610ad061144b565b84610aa58560016000610ae161144b565b6001600160a01b03908116825260208083019390935260409182016000908120918c1681529252902054906111f9565b6000828152600c602052604090205482906001600160a01b03163314610b685760405162461bcd60e51b81526004018080602001828103825260288152602001806122506028913960400191505060405180910390fd5b6000818152600c602052604080822080546001600160a01b03191690555182917f7cc135e0cebb02c3480ae5d74d377283180a2601f8f644edf7987b009316c63a91a250601181905560009081526010602052604090208054600101905550565b66038d7ea4c68000341015610bdd57600080fd5b336000908152600f602052604090203490819055610bfc903090610c11565b50610c0f33678ac7230489e8000061135b565b565b601b54604080516358c22be760e01b81526001600160a01b0385811660048301526000602483018190529251929316916358c22be79185916044808301928792919082900301818588803b158015610c6857600080fd5b505af1158015610c7c573d6000803e3d6000fd5b506001979650505050505050565b6001600160a01b0381166000908152602081905260409020545b919050565b600090815260106020526040902080546001019055565b610cc86120be565b601854610cdd903063707c2e7360e11b61172d565b6040805180820190915260058152641d5b9d1a5b60da1b6020820152909150610d0b908290603c4201611752565b601754601954610839916001600160a01b0316908390611770565b601a6020526000908152604090205481565b60048054604080516020601f60026000196101006001881615020190951694909404938401819004810282018101909252828152606093909290918301828280156109175780601f106108ec57610100808354040283529160200191610917565b6000828152600c602052604090205482906001600160a01b03163314610df05760405162461bcd60e51b81526004018080602001828103825260288152602001806122506028913960400191505060405180910390fd5b6000818152600c602052604080822080546001600160a01b03191690555182917f7cc135e0cebb02c3480ae5d74d377283180a2601f8f644edf7987b009316c63a91a2601282905560005b601254811015610edb576060610e508261193e565b6040516020018080643230ba309760d91b81525060050182805190602001908083835b60208310610e925780518252601f199092019160209182019101610e73565b6001836020036101000a0380198251168184511680821785525050505050509050019150506040516020818303038152906040529050610ed181611a16565b5050600101610e3b565b50505050565b6000610935610eee61144b565b84610aa5856040518060600160405280602581526020016122786025913960016000610f1861144b565b6001600160a01b03908116825260208083019390935260409182016000908120918d16815292529020549190611696565b6000610f536120be565b601554610f689030634c4796f960e11b61172d565b9050610fc66040518060400160405280600381526020016219d95d60ea1b81525060405180604001604052806014815260200173687474703a2f2f35322e3138382e362e3139372f60601b81525083611b559092919063ffffffff16565b604080518082018252600b81526a7175657279506172616d7360a81b602080830191909152601680548451601f6002600019610100600186161502019093169290920491820184900484028101840190955280855261108694928301828280156110715780601f1061104657610100808354040283529160200191611071565b820191906000526020600020905b81548152906001019060200180831161105457829003601f168201915b505050505083611b559092919063ffffffff16565b6110d4604051806040016040528060048152602001630e0c2e8d60e31b8152506040518060400160405280600581526020016418dbdd5b9d60da1b81525083611b559092919063ffffffff16565b6013546019546110ef916001600160a01b0316908390611770565b91505090565b600061093561110261144b565b848461153b565b600e546001600160a01b031681565b6001600160a01b03918216600090815260016020908152604080832093909416825291909152205490565b6000818152600c602052604090205481906001600160a01b0316331461119a5760405162461bcd60e51b81526004018080602001828103825260288152602001806122506028913960400191505060405180910390fd5b6000818152600c602052604080822080546001600160a01b03191690555182917f7cc135e0cebb02c3480ae5d74d377283180a2601f8f644edf7987b009316c63a91a26111e5610f49565b50610839610cc0565b60006107d482610c8a565b600082820183811015611253576040805162461bcd60e51b815260206004820152601b60248201527f536166654d6174683a206164646974696f6e206f766572666c6f770000000000604482015290519081900360640190fd5b9392505050565b505050565b6001600160a01b0382166112a45760405162461bcd60e51b81526004018080602001828103825260218152602001806121e66021913960400191505060405180910390fd5b6112b082600083611b73565b6112ed81604051806060016040528060228152602001612131602291396001600160a01b0385166000908152602081905260409020549190611696565b6001600160a01b0383166000908152602081905260409020556002546113139082611bf9565b6002556040805182815290516000916001600160a01b038516917fddf252ad1be2c89b69c2b068fc378daa952ba7f163c4a11628f55a4df523b3ef9181900360200190a35050565b6001600160a01b0382166113b6576040805162461bcd60e51b815260206004820152601f60248201527f45524332303a206d696e7420746f20746865207a65726f206164647265737300604482015290519081900360640190fd5b6113c260008383611b73565b6002546113cf90826111f9565b6002556001600160a01b0382166000908152602081905260409020546113f590826111f9565b6001600160a01b0383166000818152602081815260408083209490945583518581529351929391927fddf252ad1be2c89b69c2b068fc378daa952ba7f163c4a11628f55a4df523b3ef9281900390910190a35050565b3390565b6001600160a01b0383166114945760405162461bcd60e51b815260040180806020018281038252602481526020018061222c6024913960400191505060405180910390fd5b6001600160a01b0382166114d95760405162461bcd60e51b81526004018080602001828103825260228152602001806121536022913960400191505060405180910390fd5b6001600160a01b03808416600081815260016020908152604080832094871680845294825291829020859055815185815291517f8c5be1e5ebec7d5bd14f71427d1e84f3dd0314c0f7b2291e5b200ac8c7c3b9259281900390910190a3505050565b6001600160a01b0383166115805760405162461bcd60e51b81526004018080602001828103825260258152602001806122076025913960400191505060405180910390fd5b6001600160a01b0382166115c55760405162461bcd60e51b815260040180806020018281038252602381526020018061210e6023913960400191505060405180910390fd5b6115d0838383611b73565b61160d81604051806060016040528060268152602001612198602691396001600160a01b0386166000908152602081905260409020549190611696565b6001600160a01b03808516600090815260208190526040808220939093559084168152205461163c90826111f9565b6001600160a01b038084166000818152602081815260409182902094909455805185815290519193928716927fddf252ad1be2c89b69c2b068fc378daa952ba7f163c4a11628f55a4df523b3ef92918290030190a3505050565b600081848411156117255760405162461bcd60e51b81526004018080602001828103825283818151815260200191508051906020019080838360005b838110156116ea5781810151838201526020016116d2565b50505050905090810190601f1680156117175780820380516001836020036101000a031916815260200191505b509250505060405180910390fd5b505050900390565b6117356120be565b61173d6120be565b61174981868686611c56565b95945050505050565b60808301516117619083611c93565b608083015161125a9082611caa565b600b546040805130606090811b60208084019190915260348084018690528451808503909101815260549093018452825192810192909220908601939093526000838152600c90915281812080546001600160a01b0319166001600160a01b038816179055905182917fb5e6e01e79f91267dc17b4e6314d5d4d03593d2ceee0fbb452b750bd70ea5af991a26009546001600160a01b0316634000aea0858461181887611cb6565b6040518463ffffffff1660e01b815260040180846001600160a01b0316815260200183815260200180602001828103825283818151815260200191508051906020019080838360005b83811015611879578181015183820152602001611861565b50505050905090810190601f1680156118a65780820380516001836020036101000a031916815260200191505b50945050505050602060405180830381600087803b1580156118c757600080fd5b505af11580156118db573d6000803e3d6000fd5b505050506040513d60208110156118f157600080fd5b505161192e5760405162461bcd60e51b81526004018080602001828103825260238152602001806121756023913960400191505060405180910390fd5b600b805460010190559392505050565b60608161196357506040805180820190915260018152600360fc1b6020820152610ca4565b8160005b811561197b57600101600a82049150611967565b60608167ffffffffffffffff8111801561199457600080fd5b506040519080825280601f01601f1916602001820160405280156119bf576020820181803683370190505b50905060001982015b8515611a0d57600a860660300160f81b828280600190039350815181106119eb57fe5b60200101906001600160f81b031916908160001a905350600a860495506119c8565b50949350505050565b6000611a206120be565b601454611a359030631ce96e7b60e11b61172d565b9050611a936040518060400160405280600381526020016219d95d60ea1b81525060405180604001604052806014815260200173687474703a2f2f35322e3138382e362e3139372f60601b81525083611b559092919063ffffffff16565b604080518082018252600b81526a7175657279506172616d7360a81b602080830191909152601680548451601f60026000196101006001861615020190931692909204918201849004840281018401909552808552611b1394928301828280156110715780601f1061104657610100808354040283529160200191611071565b6040805180820190915260048152630e0c2e8d60e31b6020820152611b3a90829085611b55565b601354601954611253916001600160a01b0316908390611770565b6080830151611b649083611c93565b608083015161125a9082611c93565b611b7e83838361125a565b6001600160a01b03831661125a57611b94610abd565b611ba682611ba061093e565b906111f9565b111561125a576040805162461bcd60e51b815260206004820152601960248201527f45524332304361707065643a2063617020657863656564656400000000000000604482015290519081900360640190fd5b600082821115611c50576040805162461bcd60e51b815260206004820152601e60248201527f536166654d6174683a207375627472616374696f6e206f766572666c6f770000604482015290519081900360640190fd5b50900390565b611c5e6120be565b611c6e8560800151610100611dda565b50509183526001600160a01b031660208301526001600160e01b031916604082015290565b611ca08260038351611e14565b61125a8282611ee8565b61083982600083611e14565b6060634042994660e01b6000808460000151856020015186604001518760600151600189608001516000015160405160240180896001600160a01b03168152602001888152602001878152602001866001600160a01b03168152602001856001600160e01b031916815260200184815260200183815260200180602001828103825283818151815260200191508051906020019080838360005b83811015611d68578181015183820152602001611d50565b50505050905090810190601f168015611d955780820380516001836020036101000a031916815260200191505b5060408051601f198184030181529190526020810180516001600160e01b03166001600160e01b0319909d169c909c17909b5250989950505050505050505050919050565b611de26120f3565b6020820615611df75760208206602003820191505b506020828101829052604080518085526000815290920101905290565b60178111611e3557611e2f8360e0600585901b168317611f02565b5061125a565b60ff8111611e5f57611e52836018611fe0600586901b1617611f02565b50611e2f83826001611f1a565b61ffff8111611e8a57611e7d836019611fe0600586901b1617611f02565b50611e2f83826002611f1a565b63ffffffff8111611eb757611eaa83601a611fe0600586901b1617611f02565b50611e2f83826004611f1a565b67ffffffffffffffff811161125a57611edb83601b611fe0600586901b1617611f02565b50610edb83826008611f1a565b611ef06120f3565b61125383846000015151848551611f3b565b611f0a6120f3565b6112538384600001515184611fe7565b611f226120f3565b611f33848560000151518585612032565b949350505050565b611f436120f3565b8251821115611f5157600080fd5b84602001518285011115611f7b57611f7b85611f738760200151878601612090565b6002026120a7565b600080865180518760208301019350808887011115611f9a5787860182525b505050602084015b60208410611fc15780518252601f199093019260209182019101611fa2565b51815160001960208690036101000a019081169019919091161790525083949350505050565b611fef6120f3565b8360200151831061200b5761200b8485602001516002026120a7565b835180516020858301018481535080851415612028576001810182525b5093949350505050565b61203a6120f3565b8460200151848301111561205757612057858584016002026120a7565b60006001836101000a0390508551838682010185831982511617815250805184870111156120855783860181525b509495945050505050565b6000818311156120a15750816107d4565b50919050565b81516120b38383611dda565b50610edb8382611ee8565b6040805160a0810182526000808252602082018190529181018290526060810191909152608081016120ee6120f3565b905290565b60405180604001604052806060815260200160008152509056fe45524332303a207472616e7366657220746f20746865207a65726f206164647265737345524332303a206275726e20616d6f756e7420657863656564732062616c616e636545524332303a20617070726f766520746f20746865207a65726f2061646472657373756e61626c6520746f207472616e73666572416e6443616c6c20746f206f7261636c6545524332303a207472616e7366657220616d6f756e7420657863656564732062616c616e636545524332303a207472616e7366657220616d6f756e74206578636565647320616c6c6f77616e636545524332303a206275726e2066726f6d20746865207a65726f206164647265737345524332303a207472616e736665722066726f6d20746865207a65726f206164647265737345524332303a20617070726f76652066726f6d20746865207a65726f2061646472657373536f75726365206d75737420626520746865206f7261636c65206f6620746865207265717565737445524332303a2064656372656173656420616c6c6f77616e63652062656c6f77207a65726fa2646970667358221220cd32209832179702628bb2ab0c4b83eaac31523bcf6231a1b9e8384e2f05907764736f6c634300060c0033",
  "linkReferences": {},
  "deployedLinkReferences": {}
}